S01700004763634170706C69636174696F6E312E737265635B
S11300000C942A000C9447000C9447000C9447006D
S11300100C9447000C9447000C9447000C94470040
S11300200C9447000C9447000C9447000C94470030
S11300300C9447000C9447000C9447000C94470020
S11300400C9447000C9447000C9447000C94470010
S11300500C94470011241FBECFE5D8E0DEBFCDBF0E
S113006012E0A0E6B0E0E8E5FFE002C005900D92E2
S1130070A431B107D9F722E0A4E1B2E001C01D9296
S1130080A831B207E1F70E948C020C94AA070C94E1
S11300900000662311F0C09A01C0C098C19882BBC9
S11300A08FEF81BBC29A000000000000C29808953F
S11300B0C098C19A11BA90B3C29A0000000000001F
S11300C011BA90B3C29899239CF30E9449000895F1
S11300D09C0183E083BF89EF08C082BF98B7916019
S11300E098BFA89508B600FEFDCF21503109A8F7A6
S11300F013BE0895B89AB99ABA9A80E190E00E9422
S1130100680060E080E30E94490085E090E00E947E
S1130110680060E080E30E94490081E090E00E9472
S1130120680060E08CE30E94580060E08CE00E946C
S1130130580060E086E00E94580060E081E00E9480
S11301405800089560E081E00E9458000895CF931C
S1130150C62F98E2899FC00D112460E082E00E94BE
S11301605800CC2331F060E084E10E945800C15073
S1130170D1F7CF910895CF93DF93EC012196FC0141
S11301808081882331F061E00E94580089918111B7
S1130190FACFDF91CF9108954F925F926F927F9241
S11301A0AF92BF92CF92DF92EF92FF920F931F9381
S11301B0CF93DF93CDB7DEB7A2970FB6F894DEBF27
S11301C00FBECDBF5B01BC01990F880B990B0E9438
S11301D01F069B01AC0160E070E48CE996E40E9488
S11301E075050E9459050E94E7052B013C018B010E
S11301F0772314F46F5F7F4F75956795072E000C76
S1130200880B990B0E941F06209171003091720097
S113021040917300509174000E9415070E94E705F5
S11302206B010617170721F4620181E0C81AD1088F
S11302307201EC18FD080E94A200809116029091B0
S11302401702019721F50E94A20060E080E00E945D
S1130250A7008BE0EDEAF1E0DE01119601900D922A
S11302608A95E1F7CE0101960E94BB0061E081E02E
S11302700E94A70080E1E8EBF1E0DE0152960190D4
S11302800D928A95E1F7CE0142960E94BB008091BF
S1130290160290911702029721F50E94A20060E0D5
S11302A080E00E94A7008BE0EDEAF1E0DE01119608
S11302B001900D928A95E1F7CE0101960E94BB0050
S11302C062E081E00E94A7008EE0E8ECF1E0DE014C
S11302D0529601900D928A95E1F7CE0142960E94C2
S11302E0BB0025E52A9DC0012B9D900D1124B8016A
S11302F00E9482075B01161617067CF400E010E0EA
S1130300D89AC6010E946800D898C7010E94680064
S11303100F5F1F4FA016B10699F7A2960FB6F89477
S1130320DEBF0FBECDBFDF91CF911F910F91FF9024
S1130330EF90DF90CF90BF90AF907F906F905F90E1
S11303404F900895CF93DF9314BA15BA44B321E0C4
S113035030E0F90102C0EE0FFF1F8A95E2F7CF01EA
S1130360842B84BB85B3EB0124960C2E02C0220F90
S1130370331F0A94E2F7282B25BB80E090E00E940B
S1130380680023B330E002C035952795CA95E2F79B
S113039081E090E020FF02C080E090E0DF91CF9107
S11303A008950F931F93CF93DF9300E010E018C0DC
S11303B0BE01C8010E94A201009749F0000F111F5D
S11303C0000F111FC00FD11FCE0101960CC0219642
S11303D0C430D10569F70F5F1F4F0430110519F0C0
S11303E0C0E0D0E0E5CFDF91CF911F910F91089548
S11303F00F931F93CF93DF93CDB7DEB761970FB6FB
S1130400F894DEBF0FBECDBF0E94A20060E080E082
S11304100E94A7008FE0E6EDF1E0DE011196019065
S11304200D928A95E1F7CE0101960E94BB0080E30C
S113043095E70E9468000E94A20060E080E00E94AC
S1130440A7008CE0E5EEF1E0DE01119601900D923B
S11304508A95E1F7CE0101960E94BB0060E081E03D
S11304600E94A7008AE0E1EFF1E0DE01119601901D
S11304700D928A95E1F7CE0101960E94BB0084E6B5
S113048090E00E9468000E94D1018C0101970297BC
S1130490A0F60E94A20001301105C1F481E090E0B1
S11304A0909317028093160260E080E00E94A700F8
S11304B08CE0E5EEF1E0DE01119601900D928A9553
S11304C0E1F7CE0101960E94BB001AC0023011056B
S11304D0B9F482E090E0909317028093160260E0F2
S11304E080E00E94A7008AE0E1EFF1E0DE011196CE
S11304F001900D928A95E1F7CE0101960E94BB000E
S1130500C80161960FB6F894DEBF0FBECDBFDF9170
S1130510CF911F910F910895CF93DF93CDB7DEB79D
S113052061970FB6F894DEBF0FBECDBF8FE081BDDB
S11305300E947A008FE18ABB8BE290E090931502CF
S1130540809314028FE0E6EDF1E0DE011196019054
S11305500D928A95E1F7CE0101960E94BB0080E3DB
S113056095E70E9468000E94A2000E94F8018C0195
S11305700130110509F018C18091140290911502FF
S11305808B3291050CF065C0880F991F880F991F55
S1130590FC01EB5FFE4FE080F1800280F381E02DEF
S11305A0EE0FFF1FE958FF4F809175009091760080
S11305B0608171810E948207F701EE0FFF1FE358EB
S11305C0FF4F808191810E94CC0023E0E216F10468
S11305D059F4D99A88E592E00E946800D99884EF8A
S11305E091E00E9468002CC085E0E816F10459F4FB
S11305F0DA9A88E592E00E946800DA9884EF91E044
S11306000E9468001DC027E0E216F10459F4DB9A49
S113061088E592E00E946800DB9884EF91E00E94F4
S113062068000EC08AE0E816F10451F4DC9A88E50B
S113063092E00E946800DC9884EF91E00E946800D8
S11306408091140290911502019690931502809363
S113065014020E94D101019708F48ACFFC01E05AE8
S1130660FF4F80818A3219F5C0907100D0907200DA
S1130670E0907300F090740020E030E0A901C7011D
S1130680B6010E94100718160CF072CF20E030E07B
S113069040E85EE3C701B6010E94EC046093710078
S11306A070937200809373009093740061CF8033D1
S11306B021F5C0907100D0907200E0907300F0902A
S11306C0740020E030E040E050E4C701B6010E942D
S11306D0700588230CF04CCF20E030E040E85EE366
S11306E0C701B6010E94ED0460937100709372001B
S11306F080937300909374003BCF833271F48091A4
S11307007500909176008B3091050CF431CF4497AD
S113071090937600809375002BCF843479F4809184
S11307207500909176008C3721E092070CF020CF71
S1130730449690937600809375001ACF813479F5AE
S11307400E94A20060E080E00E94A7008BE0EBEF33
S1130750F1E0DE01119601900D928A95E1F7CE0148
S113076001960E94BB0060E081E00E94A7008DE03A
S1130770E6E0F2E0DE01119601900D928A95E1F730
S1130780CE0101960E94BB0080E395E70E946800B9
S11307900E94A2001092150210921402E9CE109247
S11307A0150210921402E4CE809114029091150265
S11307B08D3091050CF065C0880F991F880F991F23
S11307C0FC01EF52FF4FE080F1800280F381E02DC5
S11307D0EE0FFF1FE958FF4F80917500909176004E
S11307E0608171810E948207F701EE0FFF1FE358B9
S11307F0FF4F808191810E94CC0083E0E816F104D0
S113080059F4D99A88E592E00E946800D99884EF57
S113081091E00E9468002CC025E0E216F10459F42E
S1130820DA9A88E592E00E946800DA9884EF91E011
S11308300E9468001DC087E0E816F10459F4DB9AB1
S113084088E592E00E946800DB9884EF91E00E94C2
S113085068000EC02AE0E216F10451F4DC9A88E53F
S113086092E00E946800DC9884EF91E00E946800A6
S11308708091140290911502019690931502809331
S113088014020E94D101019708F472CEFC01E05ACF
S1130890FF4F80818A3219F5C0907100D0907200A8
S11308A0E0907300F090740020E030E0A901C701EB
S11308B0B6010E94100718160CF05ACE20E030E062
S11308C040E85EE3C701B6010E94EC046093710046
S11308D070937200809373009093740049CE8033B8
S11308E021F5C0907100D0907200E0907300F090F8
S11308F0740020E030E040E050E4C701B6010E94FB
S1130900700588230CF034CE20E030E040E85EE34C
S1130910C701B6010E94ED046093710070937200E8
S1130920809373009093740023CE833271F480918A
S11309307500909176008B3091050CF419CE449794
S1130940909376008093750013CE843479F480916B
S11309507500909176008C3721E092070CF008CE58
S11309604496909376008093750002CE813479F595
S11309700E94A20060E080E00E94A7008BE0EBEF01
S1130980F1E0DE01119601900D928A95E1F7CE0116
S113099001960E94BB0060E081E00E94A7008DE008
S11309A0E6E0F2E0DE01119601900D928A95E1F7FE
S11309B0CE0101960E94BB0080E395E70E94680087
S11309C00E94A2001092150210921402D1CD10922E
S11309D0150210921402CCCD5058BB27AA270E94AE
S11309E004050C94BE060E94B00638F00E94B706B7
S11309F020F039F49F3F19F426F40C94AD060EF45C
S1130A00E095E7FB0C947E06E92F0E94CF0658F38D
S1130A10BA17620773078407950720F079F4A6F5DF
S1130A200C9409070EF4E0950B2EBA2FA02D0B01A0
S1130A30B90190010C01CA01A0011124FF27591B1F
S1130A4099F0593F50F4503E68F11A16F040A22F25
S1130A50232F342F4427585FF3CF46953795279596
S1130A60A795F0405395C9F77EF41F16BA0B620B95
S1130A70730B840BBAF09150A1F0FF0FBB1F661FDC
S1130A80771F881FC2F70EC0BA0F621F731F841F1F
S1130A9048F4879577956795B795F7959E3F08F045
S1130AA0B0CF9395880F08F09927EE0F9795879507
S1130AB008950E94F10690F09F3748F4911116F4BE
S1130AC00C940A0760E070E080E89FE3089526F044
S1130AD01B16611D711D811D0C9484060C949F06C8
S1130AE00E945A0608F481E008950E9489050C9436
S1130AF0BE060E94B70658F00E94B00640F029F4E2
S1130B005F3F29F00C947E0651110C940A070C9453
S1130B10AD060E94CF0668F39923B1F3552391F3F0
S1130B20951B550BBB27AA2762177307840738F058
S1130B309F5F5F4F220F331F441FAA1FA9F335D0B5
S1130B400E2E3AF0E0E832D091505040E695001C69
S1130B50CAF72BD0FE2F29D0660F771F881FBB1F23
S1130B60261737074807AB07B0E809F0BB0B802D01
S1130B70BF01FF2793585F4F3AF09E3F510578F02D
S1130B800C947E060C940A075F3FE4F3983ED4F37A
S1130B90869577956795B795F7959F5FC9F7880F01
S1130BA0911D9695879597F90895E1E0660F771F53
S1130BB0881FBB1F621773078407BA0720F0621BE4
S1130BC0730B840BBA0BEE1F88F7E09508950E940F
S1130BD0EE056894B1110C940A0708950E94D70693
S1130BE088F09F5798F0B92F9927B751B0F0E1F0EA
S1130BF0660F771F881F991F1AF0BA95C9F714C09A
S1130C00B13091F00E940907B1E008950C940907EE
S1130C10672F782F8827B85F39F0B93FCCF38695D2
S1130C2077956795B395D9F73EF49095809570952F
S1130C3061957F4F8F4F9F4F0895E89409C097FBAC
S1130C403EF490958095709561957F4F8F4F9F4F9F
S1130C509923A9F0F92F96E9BB279395F6958795E3
S1130C6077956795B795F111F8CFFAF4BB0F11F4A6
S1130C7060FF1BC06F5F7F4F8F4F9F4F16C088234D
S1130C8011F096E911C0772321F09EE8872F762F83
S1130C9005C0662371F096E8862F70E060E02AF0C4
S1130CA09A95660F771F881FDAF7880F96958795B0
S1130CB097F90895990F0008550FAA0BE0E8FEEF85
S1130CC016161706E807F907C0F012161306E4070C
S1130CD0F50798F0621B730B840B950B39F40A2605
S1130CE061F0232B242B252B21F408950A2609F4E3
S1130CF0A140A6958FEF811D811D089597F99F67E7
S1130D0080E870E060E00895882371F4772321F08F
S1130D109850872B762F07C0662311F499270DC0AE
S1130D209051862B70E060E02AF09A95660F771F49
S1130D30881FDAF7880F9695879597F908959F3F4E
S1130D4031F0915020F4879577956795B795880F82
S1130D50911D9695879597F908959FEF80EC0895D6
S1130D6000240A9416161706180609060895002486
S1130D700A9412161306140605060895092E039400
S1130D80000C11F4882352F0BB0F40F4BF2B11F474
S1130D9060FF04C06F5F7F4F8F4F9F4F089557FDD3
S1130DA09058440F551F59F05F3F71F04795880FD5
S1130DB097FB991F61F09F3F79F08795089512166C
S1130DC013061406551FF2CF4695F1DF08C0161618
S1130DD017061806991FF1CF8695710561050894C9
S1130DE008950E94D706A0F0BEE7B91788F4BB2780
S1130DF09F3860F41616B11D672F782F8827985FE7
S1130E00F7CF869577956795B11D93959639C8F375
S1130E100895E894BB2766277727CB0197F90895AF
S1130E200E945A0608F48FEF08950E9428070C9434
S1130E30BE060E94B00638F00E94B70620F0952343
S1130E4011F00C947E060C94AD0611240C940A0740
S1130E500E94CF0670F3959FC1F3950F50E0551F84
S1130E60629FF001729FBB27F00DB11D639FAA27FB
S1130E70F00DB11DAA1F649F6627B00DA11D661F4A
S1130E80829F2227B00DA11D621F739FB00DA11D6B
S1130E90621F839FA00D611D221F749F3327A00D25
S1130EA0611D231F849F600D211D822F762F6A2FC1
S1130EB011249F5750409AF0F1F088234AF0EE0F26
S1130EC0FF1FBB1F661F771F881F91505040A9F753
S1130ED09E3F510580F00C947E060C940A075F3FF8
S1130EE0E4F3983ED4F3869577956795B795F7958F
S1130EF0E7959F5FC1F7FE2B880F911D9695879507
S1130F0097F9089597FB072E16F4009407D077FD00
S1130F1009D00E94960707FC05D03EF49095819570
S1130F209F4F0895709561957F4F0895AA1BBB1B31
S1130F3051E107C0AA1FBB1FA617B70710F0A61BD5
S1130F40B70B881F991F5A95A9F780959095BC01F6
S10B0F50CD010895F894FFCFD0
S1130F583132334134353642373839432A30234421
S1130F68000000803FC800010002000400DC00E922
S1130F7800F600050115012501370149015D0171DC
S1130F880187019F0100000000000000000000002C
S1130F980000000000000000000000000000000045
S1130FA80000000000000000000000000000000035
S1130FB80000000000000000000000000000000025
S1130FC800070001000500010003000100050001FD
S1130FD800070001000700010007000000050001E8
S1130FE8000500010005000000070001000A0001D7
S1130FF8000A00000003000100030001000A0001C8
S1131008000A00010000000100000001000A0000BD
S113101800080001000800010007000100070001A2
S1131028000500010005000100030000000A00019A
S1131038000A00010008000100080001000700017F
S11310480007000100050000000A0001000A000171
S11310580008000100080001000700010007000162
S1131068000500000003000100030001000A00015C
S1131078000A00010000000100000001000A00004D
S11310880008000100080001000700010007000132
S113109800050001000500010003000000536F6E05
S11310A867204E616D653A003D3D3E205477696E78
S11310B86B6C65203C3D3D003D3D3E204D617269B1
S11310C86F203C3D3D0043686F6F7365206120735A
S11310D86F6E673A0031203D205477696E6B6C65FA
S11310E80032203D204D6172696F0053746F707037
S11310F86564212121005265706C6179696E672EDF
S10711082E2E000083
S9030000FC
