S01700004763634170706C69636174696F6E312E737265635B
S11300000C942A000C9447000C9447000C9447006D
S11300100C9447000C9447000C9447000C94470040
S11300200C9447000C9447000C9447000C94470030
S11300300C9447000C9447000C9447000C94470020
S11300400C9447000C9447000C9447000C94470010
S11300500C94470011241FBECFE5D8E0DEBFCDBF0E
S113006010E0A0E6B0E0E4EAF0E102C005900D92F1
S1130070A43EB107D9F720E0A4EEB0E001C01D9280
S1130080A03FB207E1F70E9402030C9450080C94BD
S11300900000662311F0C09A01C0C098C19882BBC9
S11300A08FEF81BBC29A000000000000C29808953F
S11300B0C098C19A11BA90B3C29A0000000000001F
S11300C011BA90B3C29899239CF30E9449000895F1
S11300D09C0183E083BF88EB08C082BF98B791601E
S11300E098BFA89508B600FEFDCF21503109A8F7A6
S11300F013BE0895B89AB99ABA9A80E190E00E9422
S1130100680060E080E30E94490085E090E00E947E
S1130110680060E080E30E94490081E090E00E9472
S1130120680060E08CE30E94580060E08CE00E946C
S1130130580060E086E00E94580060E081E00E9480
S11301405800089560E081E00E9458000895CF931C
S1130150C62F98E2899FC00D112460E082E00E94BE
S11301605800CC2331F060E084E10E945800C15073
S1130170D1F7CF910895CF93DF93EC012196FC0141
S11301808081882331F061E00E94580089918111B7
S1130190FACFDF91CF91089587B187B986B1806C8A
S11301A086B9349BFECF349A84B195B10895CF9328
S11301B0DF9314BA15BA44B321E030E0F90102C068
S11301C0EE0FFF1F8A95E2F7CF01842B84BB85B322
S11301D0EB0124960C2E02C0220F331F0A94E2F77F
S11301E0282B25BB81E090E00E94680023B330E017
S11301F002C035952795CA95E2F781E090E020FF8B
S113020002C080E090E0DF91CF9108950F931F9397
S1130210CF93DF9300E010E018C0BE01C8010E9434
S1130220D700009749F0000F111F000F111FC00FD6
S1130230D11FCE0101960CC02196C430D10569F7B7
S11302400F5F1F4F0430110519F0C0E0D0E0E5CF77
S1130250DF91CF911F910F91089580E487B987E0D2
S113026086B908954F925F926F927F928F929F9278
S1130270AF92BF92CF92DF92EF92FF92CF93DF9330
S1130280CDB7DEB7AC970FB6F894DEBF0FBECDBFC7
S11302908091EE009091EF00009799F480E1E3EAF9
S11302A0F0E0DE01119601900D928A95E1F780E16C
S11302B0E3EBF0E0DE01519601900D928A95E1F7AF
S11302C07EC18230910509F052C06091E6007091C0
S11302D0E700072E000C880B990B0E942C0420E0E9
S11302E030E040EA50E40E94B80420E030E040E806
S11302F05AE30E94B8044B015C010E94F4036B01B1
S11303007C018BEA90E09F938F93B6010D2C000C37
S1130310880B990B0E942C049B01AC01C501B4010C
S11303200E94870320E030E048EC52E40E94B804C5
S11303300E94F4037F936F93DF92CF9283E790E060
S11303409F938F93CE0101969F938F930E9466058E
S113035080E1E3EBF0E0DE01519601900D928A9585
S1130360E1F70FB6F894DEBF0FBECDBF28C10397E7
S113037099F480E1E3ECF0E0DE01119601900D9236
S11303808A95E1F780E1E3EDF0E0DE01519601901A
S11303900D928A95E1F713C16091EC007091ED0024
S11303A0072E000C880B990B0E942C0420E030E0EF
S11303B040EA50E40E94B80420E030E040E85AE308
S11303C00E94B80469A37AA38BA39CA360916000E4
S11303D070916100072E000C880B990B0E942C046D
S11303E020E030E040EA50E40E94B80420E030E02D
S11303F040E85AE30E94B8046DA37EA38FA398A794
S11304002091E4003091E500032E000C440B550BC1
S11304106091E8007091E9008091EA009091EB000E
S11304200E942505CA01B9010E942C0420E030E095
S113043040EA50E40E94B80420E030E040E85AE387
S11304400E94B8042B013C016091E6007091E70022
S1130450072E000C880B990B0E942C0420E030E03E
S113046040EA50E40E94B80420E030E040E85AE357
S11304700E94B80469A77AA78BA79CA7C301B201FD
S11304800E94F4034B015C0169A57AA58BA59CA588
S11304900E94F4036B017C01B401092C000C880B4D
S11304A0990B0E942C049B01AC01C301B2010E9470
S11304B0870320E030E048EC52E40E94B8040E9434
S11304C0F4037F936F939F928F92B6010D2C000CCF
S11304D0880B990B0E942C049B01AC0169A57AA599
S11304E08BA59CA50E94870320E030E048EC52E4F1
S11304F00E94B8040E94F4037F936F93DF92CF921B
S11305008FE790E09F938F93CE0101969F938F93F3
S11305100E9466056DA17EA18FA198A50E94F40397
S11305204B015C0169A17AA18BA19CA10E94F403F7
S11305302B013C01B401092C000C880B990B0E947F
S11305402C049B01AC016DA17EA18FA198A50E94F2
S1130550870320E030E048EC52E40E94B8040E9493
S1130560F4037F936F939F928F92B201052C000C3A
S1130570880B990B0E942C049B01AC0169A17AA100
S11305808BA19CA10E94870320E030E048EC52E458
S11305900E94B8040E94F4037F936F935F924F927A
S11305A081E990E09F938F93CE0141969F938F931F
S11305B00E9466050FB6F894DEBF0FBECDBF0E9441
S11305C0A200CE0101960E94BB0060E081E00E947F
S11305D0A700CE0141960E94BB00AC960FB6F894DA
S11305E0DEBF0FBECDBFDF91CF91FF90EF90DF90C4
S11305F0CF90BF90AF909F908F907F906F905F90BF
S11306004F90089581E090E09093EF008093EE0086
S11306108FE081BD0E947A000E942D010F2EF3E02D
S1130620EF2EF12CF02D02E010E0C1E0D0E080913B
S1130630EE009091EF00892B09F440C00E94320132
S11306400E94CC009093E7008093E600AC01092E51
S1130650000C660B770B8090E8009090E900A09066
S1130660EA00B090EB00480D591D6A1D7B1D4093B4
S1130670E8005093E9006093EA007093EB00209146
S1130680EC003091ED002817390724F49093ED0025
S11306908093EC00209160003091610082179307F1
S11306A024F490936100809360008091E400909121
S11306B0E50001969093E5008093E4000E94060112
S11306C00197F0F0FC01EE59FF4F8081813339F43A
S11306D087B187B9D093EF00C093EE0011C0823385
S11306E039F487B187B91093EF000093EE0008C086
S11306F0843331F487B187B9F092EF00E092EE00D1
S11307000E94320184EF91E00E94680090CF50581B
S1130710BB27AA270E949F030C947E040E947004A6
S113072038F00E94770420F039F49F3F19F426F43E
S11307300C946D040EF4E095E7FB0C946704E92F28
S11307400E948F0458F3BA1762077307840795074A
S113075020F079F4A6F50C94B1040EF4E0950B2E78
S1130760BA2FA02D0B01B90190010C01CA01A001FF
S11307701124FF27591B99F0593F50F4503E68F15A
S11307801A16F040A22F232F342F4427585FF3CF9B
S1130790469537952795A795F0405395C9F77EF46C
S11307A01F16BA0B620B730B840BBAF09150A1F0B5
S11307B0FF0FBB1F661F771F881FC2F70EC0BA0F3B
S11307C0621F731F841F48F4879577956795B795C3
S11307D0F7959E3F08F0B0CF9395880F08F09927BE
S11307E0EE0F9795879508950E94FB036894B111C5
S11307F00C94B20408950E94970488F09F5798F0CF
S1130800B92F9927B751B0F0E1F0660F771F881F11
S1130810991F1AF0BA95C9F714C0B13091F00E942B
S1130820B104B1E008950C94B104672F782F8827A0
S1130830B85F39F0B93FCCF3869577956795B39552
S1130840D9F73EF490958095709561957F4F8F4FC1
S11308509F4F0895E89409C097FB3EF490958095C6
S1130860709561957F4F8F4F9F4F9923A9F0F92F72
S113087096E9BB279395F695879577956795B795F0
S1130880F111F8CFFAF4BB0F11F460FF1BC06F5FD6
S11308907F4F8F4F9F4F16C0882311F096E911C0E8
S11308A0772321F09EE8872F762F05C0662371F009
S11308B096E8862F70E060E02AF09A95660F771F1D
S11308C0881FDAF7880F9695879597F9089597F911
S11308D09F6780E870E060E008959FEF80EC0895E2
S11308E000240A941616170618060906089500240B
S11308F00A9412161306140605060895092E039485
S1130900000C11F4882352F0BB0F40F4BF2B11F4F8
S113091060FF04C06F5F7F4F8F4F9F4F089557FD57
S11309209058440F551F59F05F3F71F04795880F59
S113093097FB991F61F09F3F79F0879508951216F0
S113094013061406551FF2CF4695F1DF08C016169C
S113095017061806991FF1CF86957105610508944D
S11309600895E894BB2766277727CB0197F9089564
S11309700E94CB040C947E040E94700438F00E9400
S1130980770420F0952311F00C9467040C946D0403
S113099011240C94B2040E948F0470F3959FC1F348
S11309A0950F50E0551F629FF001729FBB27F00D19
S11309B0B11D639FAA27F00DB11DAA1F649F66276E
S11309C0B00DA11D661F829F2227B00DA11D621FBD
S11309D0739FB00DA11D621F839FA00D611D221F77
S11309E0749F3327A00D611D231F849F600D211D5B
S11309F0822F762F6A2F11249F5750409AF0F1F0DE
S1130A0088234AF0EE0FFF1FBB1F661F771F881F46
S1130A1091505040A9F79E3F510580F00C94670413
S1130A200C94B2045F3FE4F3983ED4F38695779533
S1130A306795B795F795E7959F5FC1F7FE2B880FEC
S1130A40911D9695879597F90895052E97FB1EF4A9
S1130A5000940E943C0557FD07D00E94440507FC02
S1130A6003D04EF40C943C05509540953095219557
S1130A703F4F4F4F5F4F08959095809570956195C6
S1130A807F4F8F4F9F4F0895A1E21A2EAA1BBB1BC5
S1130A90FD010DC0AA1FBB1FEE1FFF1FA217B30746
S1130AA0E407F50720F0A21BB30BE40BF50B661F5C
S1130AB0771F881F991F1A9469F760957095809520
S1130AC090959B01AC01BD01CF010895AEE0B0E06B
S1130AD0ECE6F5E00C9427080D891E8986E08C83EA
S1130AE01A8309838FEF9FE79E838D83AE01475E50
S1130AF05F4F6F89788DCE0101960E948805EF8142
S1130B00F885E00FF11F10822E96E4E00C94430860
S1130B10ABE0B0E0EEE8F5E00C9419086C017B0161
S1130B208A01FC0117821682838181FFCCC1CE0128
S1130B3001963C01F6019381F70193FD859193FFA2
S1130B4081917F01882309F4BAC1853239F493FD78
S1130B50859193FF81917F01853229F4B60190E05C
S1130B600E947F07E7CF912C212C312CFFE1F31554
S1130B70D8F08B3279F038F4803279F08332A1F4F2
S1130B80232D20611DC08D3261F0803369F4232D43
S1130B90216016C0832D8260382EE32DE4603E2E42
S1130BA02AC0F32DF8601DC037FC2DC020ED280F9E
S1130BB02A3040F08E32B9F436FC81C1232D2064F2
S1130BC0322E19C036FE06C08AE0989E200D1124EC
S1130BD0922E11C0EAE02E9E200D1124222EF32D18
S1130BE0F0623F2E08C08C3621F4832D8068382EA5
S1130BF002C0883641F4F70193FD859193FF8191FA
S1130C007F018111B3CF982F9F7D9554933028F4A1
S1130C100C5F1F4F9FE399830DC0833631F08337F8
S1130C2071F0833509F059C021C0F80180818983AE
S1130C300E5F1F4F88248394912C530113C0280105
S1130C40F2E04F0E511CF801A080B18036FE03C0C3
S1130C50692D70E002C06FEF7FEFC5010E94740739
S1130C604C018201F32DFF773F2E16C0280122E0AC
S1130C70420E511CF801A080B18036FE03C0692DDC
S1130C8070E002C06FEF7FEFC5010E9469074C015D
S1130C90F32DF0683F2E820133FC1BC0822D90E0BF
S1130CA088169906B0F4B60180E290E00E947F07AE
S1130CB02A94F4CFF50137FC859137FE81915F01C9
S1130CC0B60190E00E947F0721102A9421E0821A45
S1130CD091088114910471F7E8C0843611F08936C3
S1130CE041F5F80137FE07C06081718182819381EB
S1130CF00C5F1F4F08C060817181072E000C880BA8
S1130D00990B0E5F1F4FF32DFF763F2E97FF09C0FF
S1130D1090958095709561957F4F8F4F9F4FF068A8
S1130D203F2E2AE030E0A3010E94BB07882E8618DC
S1130D3045C0853731F4232D2F7EB22E2AE030E0D2
S1130D4025C0932D997FB92E8F36C1F018F48835BC
S1130D5079F0B5C0803719F0883721F0B0C0E92F99
S1130D60E061BE2EB4FE0DC0FB2DF460BF2E09C0A1
S1130D7034FE0AC0292F2660B22E06C028E030E0D7
S1130D8005C020E130E002C020E132E0F801B7FE06
S1130D9007C060817181828193810C5F1F4F06C0FF
S1130DA06081718180E090E00E5F1F4FA3010E947B
S1130DB0BB07882E8618FB2DFF773F2E36FE0DC00D
S1130DC0232D2E7FA22E891458F434FE0BC032FC3E
S1130DD009C0832D8E7EA82E05C0B82CA32C03C079
S1130DE0B82C01C0B92CA4FE0FC0FE01E80DF11D02
S1130DF08081803321F49A2D997EA92E09C0A2FE08
S1130E0006C0B394B39404C08A2D867809F0B394D1
S1130E10A3FC11C0A0FE06C0B21488F4280C922CC6
S1130E209B180EC0B21460F4B60180E290E00E94F8
S1130E307F07B394F7CFB21418F42B1802C0982C80
S1130E40212CA4FE10C0B60180E390E00E947F072D
S1130E50A2FE17C0A1FC03C088E790E002C088E5A9
S1130E6090E0B6010CC08A2D867859F0A1FE02C02C
S1130E708BE201C080E2A7FC8DE2B60190E00E9403
S1130E807F07891438F4B60180E390E00E947F075D
S1130E909A94F7CF8A94F301E80DF11D8081B6018D
S1130EA090E00E947F078110F5CF222009F442CE02
S1130EB0B60180E290E00E947F072A94F6CFF60103
S1130EC08681978102C08FEF9FEF2B96E2E10C940D
S1130ED03508FC010590615070400110D8F78095E9
S1130EE090958E0F9F1F0895FC01615070400190F2
S1130EF00110D8F7809590958E0F9F1F08950F933A
S1130F001F93CF93DF93FB01238121FD03C08FEF58
S1130F109FEF2CC022FF16C0468157812481358162
S1130F204217530744F4A081B1819D012F5F3F4FC5
S1130F30318320838C93268137812F5F3F4F378302
S1130F40268314C08B01EC01FB010084F185E02DA4
S1130F500995892BE1F6D80116968D919C911797E6
S1130F60019617969C938E931697CE01DF91CF919D
S1130F701F910F910895FA01AA27283051F12031C9
S1130F8081F1E8946F936E7F6E5F7F4F8F4F9F4F19
S1130F90AF4FB1E03ED0B4E03CD0670F781F891F5B
S1130FA09A1FA11D680F791F8A1F911DA11D6A0F29
S1130FB0711D811D911DA11D20D009F468943F91DC
S1130FC02AE0269F11243019305D3193DEF6CF01DB
S1130FD00895462F4770405D4193B3E00FD0C9F7A1
S1130FE0F6CF462F4F70405D4A3318F0495D31FD0E
S1130FF04052419302D0A9F7EACFB4E0A695979561
S1131000879577956795BA95C9F700976105710536
S113101008959B01AC010A2E069457954795379580
S11310202795BA95C9F7620F731F841F951FA01DDA
S113103008952F923F924F925F926F927F928F9278
S11310409F92AF92BF92CF92DF92EF92FF920F9353
S11310501F93CF93DF93CDB7DEB7CA1BDB0B0FB65D
S1131060F894DEBF0FBECDBF09942A88398848881A
S11310705F846E847D848C849B84AA84B984C884B0
S1131080DF80EE80FD800C811B81AA81B981CE0FA7
S1131090D11D0FB6F894DEBF0FBECDBFED0108958C
S10710A0F894FFCFEE
S11310A410273132334134353642373839432A3004
S11310B423440043553A25642E25642025730043B4
S11310C4553A25642E25642041563A25642E256418
S11310D4004D583A25642E2564204D4E3A25642E3D
S11310E425640043553A2D2D2D2D2041563A2D2D9E
S11310F42D2D004D583A2D2D2D2D204D4E3A2D2DAC
S11311042D2D0043553A342E39392041563A342E84
S11311143939004D583A342E3939204D4E3A342E4B
S10711243939000051
S9030000FC
