S01700004763634170706C69636174696F6E312E737265635B
S11300000C942A000C9447000C9447000C9447006D
S11300100C9447000C9447000C9447000C94E200A5
S11300200C9447000C9447000C9447000C94470030
S11300300C9447000C9447000C9447000C94470020
S11300400C9447000C9447000C9447000C94470010
S11300500C94470011241FBECFE5D8E0DEBFCDBF0E
S113006012E0A0E6B0E0E6E4F7E102C005900D92EC
S1130070A833B107D9F722E0A8E3B2E001C01D928A
S1130080AE33B207E1F70E946A050C94A10B0C94FD
S11300900000662311F0C09A01C0C098C19882BBC9
S11300A08FEF81BBC29A000000000000C29808953F
S11300B0C098C19A11BA90B3C29A0000000000001F
S11300C011BA90B3C29899239CF30E9449000895F1
S11300D09C0183E083BF83E808C082BF98B7916026
S11300E098BFA89508B600FEFDCF21503109A8F7A6
S11300F013BE08959C0182E083BF86EF08C082BFCF
S113010098B7916098BFA89508B600FEFDCF21501E
S11301103109A8F713BE0895B89AB99ABA9A80E13A
S113012090E00E94680060E080E30E94490085E05E
S113013090E00E94680060E080E30E94490081E052
S113014090E00E94680060E08CE30E94580060E048
S11301508CE00E94580060E086E00E94580060E055
S113016081E00E945800089560E081E00E945800F8
S11301700895CF93C62F98E2899FC00D112460E0A3
S113018082E00E945800CC2331F060E084E10E94B8
S11301905800C150D1F7CF91089561E00E945800F2
S11301A00895CF93DF93EC012196FC01808188238D
S11301B031F061E00E94580089918111FACFDF91FA
S11301C0CF9108951F920F920FB60F9211242F937F
S11301D08F939F9380913C0290913D020196893EBA
S11301E02DEF920728F490933D0280933C0204C0C3
S11301F010923D0210923C029F918F912F910F908B
S11302000FBE0F901F9018952F923F924F925F92BE
S11302106F927F928F929F92AF92BF92CF92DF9212
S1130220EF92FF92CF93DF9300D000D0CDB7DEB72B
S11302304B015C01CA01B9010E94CE062091A800BD
S11302403091A9004091AA005091AB000E9434075C
S113025069837A838B839C83C501B4010E94CE0693
S1130260209138023091390240913A0250913B0278
S11302700E9434070E949F0614012501261A370A9A
S1130280480A590A75016401C60ED71EE81EF91EF4
S1130290D09A69817A818B819C810E949F06A501F5
S11302A09401220F331F441F551F0E94DD0749018B
S11302B05A01232B242B252BB9F0612C712CD89AAD
S11302C0C1010E947A00D898C6010E947A008FEF7B
S11302D0681A780AC301072C000CAA0BBB0B8815FB
S11302E09905AA05BB0558F30F900F900F900F9036
S11302F0DF91CF91FF90EF90DF90CF90BF90AF90C0
S11303009F908F907F906F905F904F903F902F9031
S1130310089520916C0030916D0040916E005091D1
S11303206F00609198007091990080919A0090916B
S11303309B000E94040120916C0030916D0040915B
S11303406E0050916F006091A0007091A1008091A7
S1130350A2009091A3000E94040120916C003091AE
S11303606D0040916E0050916F006091A4007091F7
S1130370A5008091A6009091A7000E940401089511
S1130380CF93C62F9FE094BB9FEF95BB44B321E06E
S113039030E0B90102C0660F771F8A95E2F7CB01FE
S11303A0462B44BB95B38095892385BB81E090E0BF
S11303B00E94680083B390E0CC5F02C09595879556
S11303C0CA95E2F771E087278170CF910895209153
S11303D06C0030916D0040916E0050916F006091FF
S11303E088007091890080918A0090918B000E940E
S11303F0040120916C0030916D0040916E00509189
S11304006F006091800070918100809182009091D2
S113041083000E94040120916C0030916D00409192
S11304206E0050916F00609174007091750080911E
S11304307600909177000E94040120916C00309125
S11304406D0040916E0050916F0060917C0070913E
S11304507D0080917E0090917F000E940401209194
S11304606C0030916D0040916E0050916F0060916E
S113047078007091790080917A0090917B000E94BD
S1130480040120916C0030916D0040916E005091F8
S11304906F00609170007091710080917200909172
S11304A073000E9404010895CF93DF93D0E012C03B
S11304B06C2F8D2F0E94C001882331F0CF5F8D2FC8
S11304C0880F880F8C0F08C0CF5FC43089F7DF5FB7
S11304D0D43011F0C0E0ECCFDF91CF91089520919A
S11304E06C0030916D0040916E0050916F006091EE
S11304F084007091850080918600909187000E940D
S1130500040120916C0030916D0040916E00509177
S11305106F006091840070918500809186009091B5
S113052087000E94040120916C0030916D0040917D
S11305306E0050916F0060918400709185008091ED
S11305408600909187000E940401209168003091F8
S1130550690040916A0050916B0060918400709131
S1130560850080918600909187000E94040120916B
S113057068003091690040916A0050916B0060916D
S113058090007091910080919200909193000E944C
S11305900401209168003091690040916A005091F3
S11305A06B0060918C0070918D0080918E00909111
S11305B08F000E94040120916800309169004091ED
S11305C06A0050916B006091840070918500809165
S11305D08600909187000E94040120916C00309164
S11305E06D0040916E0050916F0060918C0070918D
S11305F08D0080918E0090918F000E9404014091A3
S113060068005091690060916A0070916B0080915C
S1130610640090916500A0916600B09167009A0112
S1130620AB01280F391F4A1F5B1F60918400709132
S1130630850080918600909187000E9404010895AE
S1130640409168005091690060916A0070916B005C
S113065080916C0090916D00A0916E00B0916F003C
S11306609A01AB01280F391F4A1F5B1F60919C0040
S113067070919D0080919E0090919F000E940401C2
S1130680409168005091690060916A0070916B001C
S113069080916C0090916D00A0916E00B0916F00FC
S11306A09A01AB01280F391F4A1F5B1F60919C0000
S11306B070919D0080919E0090919F000E94040182
S11306C0409168005091690060916A0070916B00DC
S11306D080916C0090916D00A0916E00B0916F00BC
S11306E09A01AB01280F391F4A1F5B1F60919C00C0
S11306F070919D0080919E0090919F000E94040142
S1130700409168005091690060916A0070916B009B
S113071080916C0090916D00A0916E00B0916F007B
S11307209A01AB01280F391F4A1F5B1F6091A0007B
S11307307091A1008091A2009091A3000E940401F5
S113074020916C0030916D0040916E0050916F00CB
S1130750609194007091950080919600909197001B
S11307600E940401409168005091690060916A0000
S113077070916B0080916C0090916D00A0916E005F
S1130780B0916F009A01AB01280F391F4A1F5B1FFC
S113079060919C0070919D0080919E0090919F00BB
S11307A00E940401409168005091690060916A00C0
S11307B070916B0080916C0090916D00A0916E001F
S11307C0B0916F009A01AB01280F391F4A1F5B1FBC
S11307D06091A0007091A1008091A2009091A3006B
S11307E00E94040120916C0030916D0040916E00D4
S11307F050916F00609194007091950080919600E3
S1130800909197000E94040120916400309165004A
S1130810409166005091670060919C0070919D002A
S113082080919E0090919F000E94040108950E946F
S1130830B40088E891E00E94D10060E081E00E9469
S1130840B90088E991E00E94D1000E9454028823F3
S1130850E1F30E94B4000895CF92DF92EF92FF92E9
S11308600F931F93CF93DF936C01D62FC72FFC01F7
S113087001900020E9F731977F01E81AF90A0E94F4
S1130880B40060E081E00E94B9001E141F04BCF4AF
S11308900D2F1C2FE601EC0CFD1CF8012191319168
S11308A08F012130310521F488810E94CD0003C0DD
S11308B08FE50E94CD002196CE15DF0571F7DF91FB
S11308C0CF911F910F91FF90EF90DF90CF900895FB
S11308D0EF92FF920F931F93CF93DF93FC0101904C
S11308E00020E9F731979F01281B390B12161306D4
S11308F01CF5A42FB52FFC01AC01420F531FE12CB2
S1130900F12C01E010E02D913D912130310521F4CD
S1130910908169130CC013C09081961308C0CD0157
S11309200297EC0119830883DFEFED1AFD0A319673
S1130930E417F50741F706C0E12CF12C03C0EE24BF
S1130940EA94FE2CC701DF91CF911F910F91FF9084
S1130950EF900895DF92EF92FF920F931F93CF933E
S1130960DF9360E080E00E94B90087EA91E00E9492
S1130970D10011E4C1E0D0E0D12CE12CFF24F394A8
S113098000E026C011E4CF2DD02F22C011E4CF2DDA
S1130990D02F1EC014E4CF2DD02F1AC017E4CF2DB2
S11309A0D02F16C01AE4CF2DD02F12C01DE4CF2DA6
S11309B0D02F0EC010E5CF2DD02F0AC014E5CF2DB7
S11309C0D02F06C0CF2DD02F03C017E5CF2DD02FA9
S11309D00E945402209709F068C0882309F467C074
S11309E0803109F46EC0813041F48FEB810F89317D
S11309F048F61F5FCF2DD02FEBCF823041F48FEB21
S1130A00810F823018F61F5FCF2DD02FE1CF8330B6
S1130A1049F48CEB810F823008F0BCCF1F5FCF2DDF
S1130A20D02FD6CF853049F489EB810F823008F07E
S1130A30B5CF1F5FCF2DD02FCBCF863049F486EBB7
S1130A40810F823008F0AECF1F5FCF2DD02FC0CFE3
S1130A50873049F483EB810F823008F0A7CF1F5F02
S1130A60CF2DD02FB5CF893049F480EB810F83305F
S1130A7008F0A0CF1F5FCF2DD02FAACF8A3049F422
S1130A808CEA810F823008F099CF1F5FCF2DD02FD1
S1130A909FCF8B3009F096CF89EA810F833008F01D
S1130AA094CF1F5FCF2DD02F93CF811191CF65E0CD
S1130AB080E00E94B900812F0E94CD00CD2DDE2D53
S1130AC087CF812FDF91CF911F910F91FF90EF90EE
S1130AD0DF900895CF93DF93CDB7DEB7CD56D140E5
S1130AE00FB6F894DEBF0FBECDBF0E948C00789481
S1130AF08EB58C608EBD89B7806189BF89E09DE326
S1130B009BBD8ABD8CEDECEAF0E0DE01119601900C
S1130B100D928A95E1F70E9417042E012DED420EE5
S1130B20511CCE018E5B9E4FC659DE4F998388833C
S1130B30CA56D1400F2EFDEA6F2EF1E07F2EF02D24
S1130B405E0191EFA90EB11CC659DE4F2880CA562A
S1130B50D140C559DE4F3880CB56D140C459DE4F01
S1130B60A882CC56D140C359DE4FB882CD56D1406D
S1130B7080913C0290913D020E9464080E945F08AB
S1130B806BE070E00E94C907E4E1E89FB001E99FCF
S1130B90700D112481E090E08C0F9D1F680F791F68
S1130BA0C2010E946F08F20101900020E9F7319719
S1130BB04F0184189508C659DE4FE881F981CA5659
S1130BC0D14028E211922A95E9F7181419040CF07F
S1130BD0B1C00F2EF9E0EF2EF12CF02DC12CD12C49
S1130BE0622D732DC2010E942C04FF92EF927F921A
S1130BF06F92BF92AF920E94760869E080E00E94F3
S1130C00B900C459DE4F8881CC56D140C359DE4F58
S1130C109881CD56D1400E94D1000E94AA04422D51
S1130C20532D682FC2010E9468048C010F900F900D
S1130C300F900F900F900F900097B9F481E0E81A8D
S1130C40F1080E94B40086EB91E00E94D10060E0BC
S1130C5081E00E94B90086EC91E00E94D1000E94DC
S1130C608901E114F104B1F560C099230CF50E94E7
S1130C70B40085ED91E00E94D10060E081E00E9423
S1130C80B90084EE91E00E94D1002091640030917B
S1130C90650040916600509167006091A4007091D6
S1130CA0A5008091A6009091A7000E94040112C0A3
S1130CB00E94B40086EF91E00E94D10060E081E0E0
S1130CC00E94B90086E092E00E94D1000E94E701F0
S1130CD0C00ED11EC814D9040CF482CF88EE93E060
S1130CE00E946800EF2881F40E94B40086E192E03B
S1130CF00E94D10060E081E00E94B900C2010E941C
S1130D00D1000E94200334CF0E94B40087E292E015
S1130D100E94D10060E081E00E94B90086E092E088
S1130D200E94D1000E946F0223CF88EE93E00E94BC
S1130D306800DACF88EE93E00E946800E5CF0E9455
S1130D40130788F09F5798F0B92F9927B751B0F03F
S1130D50E1F0660F771F881F991F1AF0BA95C9F73B
S1130D6014C0B13091F00E942D07B1E008950C94A5
S1130D702D07672F782F8827B85F39F0B93FCCF358
S1130D80869577956795B395D9F73EF490958095B8
S1130D90709561957F4F8F4F9F4F0895E89409C0D8
S1130DA097FB3EF490958095709561957F4F8F4F9A
S1130DB09F4F9923A9F0F92F96E9BB279395F695B0
S1130DC0879577956795B795F111F8CFFAF4BB0F2E
S1130DD011F460FF1BC06F5F7F4F8F4F9F4F16C092
S1130DE0882311F096E911C0772321F09EE8872F1C
S1130DF0762F05C0662371F096E8862F70E060E0D8
S1130E002AF09A95660F771F881FDAF7880F969550
S1130E10879597F9089557FD9058440F551F59F039
S1130E205F3F71F04795880F97FB991F61F09F3FD3
S1130E3079F087950895121613061406551FF2CFFC
S1130E404695F1DF08C0161617061806991FF1CF4C
S1130E5086957105610508940895E894BB27662773
S1130E607727CB0197F908950E9447070C94B80798
S1130E700E94AA0738F00E94B10720F0952311F0D0
S1130E800C94A1070C94A70711240C942E070E941C
S1130E900B0770F3959FC1F3950F50E0551F629FA8
S1130EA0F001729FBB27F00DB11D639FAA27F00DBF
S1130EB0B11DAA1F649F6627B00DA11D661F829FE6
S1130EC02227B00DA11D621F739FB00DA11D621FCB
S1130ED0839FA00D611D221F749F3327A00D611DE8
S1130EE0231F849F600D211D822F762F6A2F1124CA
S1130EF09F5750409AF0F1F088234AF0EE0FFF1FFD
S1130F00BB1F661F771F881F91505040A9F79E3F53
S1130F10510580F00C94A1070C942E075F3FE4F375
S1130F20983ED4F3869577956795B795F795E795A9
S1130F309F5FC1F7FE2B880F911D9695879597F9B2
S1130F40089597F99F6780E870E060E008959FEF47
S1130F5080EC089500240A9416161706180609064C
S1130F60089500240A94121613061406050608951B
S1130F70092E0394000C11F4882352F0BB0F40F4A3
S1130F80BF2B11F460FF04C06F5F7F4F8F4F9F4FE3
S1130F90089597FB072E16F4009407D077FD09D027
S1130FA00E94FF0707FC05D03EF4909581959F4F62
S1130FB00895709561957F4F0895A1E21A2EAA1B9A
S1130FC0BB1BFD010DC0AA1FBB1FEE1FFF1FA217F5
S1130FD0B307E407F50720F0A21BB30BE40BF50BF2
S1130FE0661F771F881F991F1A9469F7609570957B
S1130FF0809590959B01AC01BD01CF010895AA1B7A
S1131000BB1B51E107C0AA1FBB1FA617B70710F0EF
S1131010A61BB70B881F991F5A95A9F78095909521
S1131020BC01CD0108958F929F92AF92BF92CF924F
S1131030DF92EF92FF92CF93DF93EC016881798185
S11310408A819B81611571058105910521F464E212
S113105079ED8BE597E02DE133EF41E050E00E941C
S1131060290B49015A019B01AC01A7EAB1E40E9492
S1131070480B6B017C01ACEEB4EFA50194010E9416
S1131080560BDC01CB018C0D9D1DAE1DBF1DB7FFA2
S113109003C00197A109B04888839983AA83BB83BD
S11310A09F77DF91CF91FF90EF90DF90CF90BF902B
S11310B0AF909F908F9008950E941308089580E642
S11310C090E00E9413080895A0E0B0E080936000CF
S11310D090936100A0936200B09363000895FB01B4
S11310E0DC0101900D920020E1F70895AEE0B0E03C
S11310F0ECE7F8E00C94690B0D891E8986E08C837B
S11311001A8309838FEF9FE79E838D83AE01475E29
S11311105F4F6F89788DCE0101960E949808EF8108
S1131120F885E00FF11F10822E96E4E00C94850BF5
S1131130ABE0B0E0EEE9F8E00C945B0B6C017B01F2
S11311408A01FC0117821682838181FFCCC1CE0102
S113115001963C01F6019381F70193FD859193FF7C
S113116081917F01882309F4BAC1853239F493FD52
S1131170859193FF81917F01853229F4B60190E036
S11311800E948F0AE7CF912C212C312CFFE1F3151B
S1131190D8F08B3279F038F4803279F08332A1F4CC
S11311A0232D20611DC08D3261F0803369F4232D1D
S11311B0216016C0832D8260382EE32DE4603E2E1C
S11311C02AC0F32DF8601DC037FC2DC020ED280F78
S11311D02A3040F08E32B9F436FC81C1232D2064CC
S11311E0322E19C036FE06C08AE0989E200D1124C6
S11311F0922E11C0EAE02E9E200D1124222EF32DF2
S1131200F0623F2E08C08C3621F4832D8068382E7E
S113121002C0883641F4F70193FD859193FF8191D3
S11312207F018111B3CF982F9F7D9554933028F47B
S11312300C5F1F4F9FE399830DC0833631F08337D2
S113124071F0833509F059C021C0F8018081898388
S11312500E5F1F4F88248394912C530113C02801DF
S1131260F2E04F0E511CF801A080B18036FE03C09D
S1131270692D70E002C06FEF7FEFC5010E94840A00
S11312804C018201F32DFF773F2E16C0280122E086
S1131290420E511CF801A080B18036FE03C0692DB6
S11312A070E002C06FEF7FEFC5010E94790A4C0124
S11312B0F32DF0683F2E820133FC1BC0822D90E099
S11312C088169906B0F4B60180E290E00E948F0A75
S11312D02A94F4CFF50137FC859137FE81915F01A3
S11312E0B60190E00E948F0A21102A9421E0821A0C
S11312F091088114910471F7E8C0843611F089369D
S113130041F5F80137FE07C06081718182819381C4
S11313100C5F1F4F08C060817181072E000C880B81
S1131320990B0E5F1F4FF32DFF763F2E97FF09C0D9
S113133090958095709561957F4F8F4F9F4FF06882
S11313403F2E2AE030E0A3010E94CB0A882E8618A3
S113135045C0853731F4232D2F7EB22E2AE030E0AC
S113136025C0932D997FB92E8F36C1F018F4883596
S113137079F0B5C0803719F0883721F0B0C0E92F73
S1131380E061BE2EB4FE0DC0FB2DF460BF2E09C07B
S113139034FE0AC0292F2660B22E06C028E030E0B1
S11313A005C020E130E002C020E132E0F801B7FEE0
S11313B007C060817181828193810C5F1F4F06C0D9
S11313C06081718180E090E00E5F1F4FA3010E9455
S11313D0CB0A882E8618FB2DFF773F2E36FE0DC0D4
S11313E0232D2E7FA22E891458F434FE0BC032FC18
S11313F009C0832D8E7EA82E05C0B82CA32C03C053
S1131400B82C01C0B92CA4FE0FC0FE01E80DF11DDB
S11314108081803321F49A2D997EA92E09C0A2FEE1
S113142006C0B394B39404C08A2D867809F0B394AB
S1131430A3FC11C0A0FE06C0B21488F4280C922CA0
S11314409B180EC0B21460F4B60180E290E00E94D2
S11314508F0AB394F7CFB21418F42B1802C0982C47
S1131460212CA4FE10C0B60180E390E00E948F0AF4
S1131470A2FE17C0A1FC03C088E790E002C088E583
S113148090E0B6010CC08A2D867859F0A1FE02C006
S11314908BE201C080E2A7FC8DE2B60190E00E94DD
S11314A08F0A891438F4B60180E390E00E948F0A11
S11314B09A94F7CF8A94F301E80DF11D8081B60167
S11314C090E00E948F0A8110F5CF222009F442CEC9
S11314D0B60180E290E00E948F0A2A94F6CFF601CA
S11314E08681978102C08FEF9FEF2B96E2E10C94E7
S11314F0770BFC010590615070400110D8F780957E
S113150090958E0F9F1F0895FC01615070400190CB
S11315100110D8F7809590958E0F9F1F08950F9313
S11315201F93CF93DF93FB01238121FD03C08FEF32
S11315309FEF2CC022FF16C046815781248135813C
S11315404217530744F4A081B1819D012F5F3F4F9F
S1131550318320838C93268137812F5F3F4F3783DC
S1131560268314C08B01EC01FB010084F185E02D7E
S11315700995892BE1F6D80116968D919C911797C0
S1131580019617969C938E931697CE01DF91CF9177
S11315901F910F910895FA01AA27283051F12031A3
S11315A081F1E8946F936E7F6E5F7F4F8F4F9F4FF3
S11315B0AF4FB1E03ED0B4E03CD0670F781F891F35
S11315C09A1FA11D680F791F8A1F911DA11D6A0F03
S11315D0711D811D911DA11D20D009F468943F91B6
S11315E02AE0269F11243019305D3193DEF6CF01B5
S11315F00895462F4770405D4193B3E00FD0C9F77B
S1131600F6CF462F4F70405D4A3318F0495D31FDE7
S11316104052419302D0A9F7EACFB4E0A69597953A
S1131620879577956795BA95C9F700976105710510
S113163008959B01AC010A2E06945795479537955A
S11316402795BA95C9F7620F731F841F951FA01DB4
S11316500895052E97FB1EF400940E94400B57FD3D
S113166007D00E94DD0707FC03D04EF40C94400B16
S113167050954095309521953F4F4F4F5F4F0895BA
S113168090958095709561957F4F8F4F9F4F0895EA
S11316900E94920BA59F900DB49F900DA49F800D66
S11316A0911D11240895B7FF0C94480B0E94480B18
S11316B0821B930B08952F923F924F925F926F92E9
S11316C07F928F929F92AF92BF92CF92DF92EF92CE
S11316D0FF920F931F93CF93DF93CDB7DEB7CA1B4F
S11316E0DB0B0FB6F894DEBF0FBECDBF09942A887A
S11316F0398848885F846E847D848C849B84AA8422
S1131700B984C884DF80EE80FD800C811B81AA81AE
S1131710B981CE0FD11D0FB6F894DEBF0FBECDBF79
S1131720ED010895A29FB001B39FC001A39F700D66
S1131730811D1124911DB29F700D811D1124911DD5
S10917400895F894FFCFA8
S11317460100000050C30000A8610000D43000006E
S11317561F000000250000002A0000002F000000E2
S11317663F000000470000004B000000500000004E
S11317765A00000065000000710000007F000000B0
S113178697000000E30000000000C03F4C415054A5
S11317964F500000000000000000000000000000A0
S11317A6454D424544444544000000000000000005
S11317B6000000004D415448454D415449435300EF
S11317C600000000000000004245414348000000BC
S11317D600000000000000000000000053554D4DBD
S11317E64552000000000000000000000000000058
S11317F65041524B494E47000000000000000000D3
S11318060000000042454155544946554C0000002D
S11318160000000000000000434F4D50555445524F
S1131826000000000000000000000000554E49566C
S113183645525349545900000000000000000000BE
S11318465343484F4F4C00000000000000000000C6
S11318560000000053595354454D00000000000099
S1131866000000000000000020203D3D3E48616E5F
S1131876676D616E3C3D3D002020203D3D3E476145
S11318866D653C3D3D20005069636B3A004C6976BA
S113189665733A25640057726F6E672063686F69D3
S11318A663652121210031206C696665206C6F73A4
S11318B6742121210053616D652063686F69636536
S11318C621212100506C6561736520747279206151
S11318D66761696E2100436F727265637420636881
S11318E66F6963652100436F6E67726174756C611D
S11318F674696F6E2100596F75206C6F737420695B
S113190674207761733A00203D3D3E20596F75205F
S10B1916776F6E203C3D3D009B
S9030000FC
