S01700004763634170706C69636174696F6E312E737265635B
S11300000C942A000C9447000C9447000C9447006D
S11300100C9447000C9447000C9447000C94470040
S11300200C9447000C9447000C9447000C94470030
S11300300C9447000C9447000C9447000C94470020
S11300400C9447000C9447000C9447000C94470010
S11300500C94470011241FBECFE5D8E0DEBFCDBF0E
S113006011E0A0E6B0E0E0ECF1E102C005900D92F1
S1130070A230B107D9F721E0A2E0B1E001C01D929E
S1130080A431B207E1F70E948B050C94DE080C94AE
S11300900000662311F0C09A01C0C098C19882BBC9
S11300A08FEF81BBC29A000000000000C29808953F
S11300B0C098C19A11BA90B3C29A0000000000001F
S11300C011BA90B3C29899239CF30E9449000895F1
S11300D060E081E00E9458000895CF93C62F98E213
S11300E0899FC00D112460E082E00E945800CC2357
S11300F031F060E084E10E945800C150D1F7CF9103
S11301000895CF93DF93EC012196FC01808188232D
S113011031F061E00E94580089918111FACFDF919A
S1130120CF910895CF92DF92EF92FF920F931F9396
S1130130CF93DF93CDB7DEB761970FB6F894DEBFE8
S11301400FBECDBF162F072FF42EE52ED22EC32EB1
S113015061E00E946D00CF92DF92EF92FF920F93C5
S11301601F9380E990E09F938F938E010F5F1F4F41
S11301701F930F930E94F405C8010E9481000FB6DB
S1130180F894DEBF0FBECDBF61960FB6F894DEBF04
S11301900FBECDBFDF91CF911F910F91FF90EF90D4
S11301A0DF90CF900895CF92DF92EF92FF920F935A
S11301B01F93CF93DF93CDB7DEB761970FB6F89453
S11301C0DEBF0FBECDBF162F072FF42EE52ED22E85
S11301D0C32E61E00E946D00CF92DF92EF92FF92F6
S11301E00F931F938FE990E09F938F938E010F5F7E
S11301F01F4F1F930F930E94F405C8010E948100B2
S11302000FB6F894DEBF0FBECDBF61960FB6F8945B
S1130210DEBF0FBECDBFDF91CF911F910F91FF9035
S1130220EF90DF90CF9008959C014C3351050CF56D
S11302306C3371050CF58091600090916100892BFD
S113024049F051E040E0283131050CF050E0852FB1
S1130250942F08958091060190910701009771F001
S113026051E040E02C3031050CF050E0852F942F04
S1130270089580E090E0089580E090E008959C0166
S113028060E971E00E94C505892B91F0C901837072
S11302909927892B81F4C90164E670E00E94C505A1
S11302A021E030E0892B09F420E0822F932F089578
S11302B081E090E0089580E090E00895CF93DF938B
S11302C0CDB7DEB76A970FB6F894DEBF0FBECDBFC9
S11302D02AE1E2E6F0E0DE01119601900D922A9502
S11302E0E1F78230910571F46D31710571F4CA0141
S11302F00E943F0131E020E0892B09F430E0832F94
S1130300922F19C08D30910588F4161617068CF4B7
S1130310880F991FFE01E80FF91F81E090E0218109
S11303203281261737073CF480E005C080E090E076
S113033002C080E090E06A960FB6F894DEBF0FBE6C
S1130340CDBFDF91CF9108950F931F93CF93DF9388
S113035000910E0110910F0160910A0170910B013F
S11303606F5F7F4F70930B0160930A01C091080186
S1130370D0910901A801CE010E945E01892B01F5EB
S113038081E090E090930B0180930A012196A801EB
S113039061E070E0CE010E945E01892B29F0D093C8
S11303A00901C09308010CC081E090E09093090119
S11303B0809308010F5F1F4F10930F0100930E01EC
S11303C0DF91CF911F910F91089580911001909129
S11303D0110101968C33910529F0909311018093BA
S11303E010010895109211011092100180910C01D6
S11303F090910D0101968C33910529F090930D0194
S113040080930C01089510920D0110920C018091BB
S1130410120190911301019690931301809312019C
S11304202091600030916100232B09F18C309105FB
S113043059F481E090E090930301809302011092BB
S113044005011092040108954897F9F410921301DC
S113045010921201109203011092020181E090E0C7
S113046090930501809304010E94A40108950C97C0
S113047061F40E94A401109203011092020181E030
S113048090E09093050180930401089584309105D0
S113049064F08830910514F4019708958C30910527
S11304A014F40297089580E090E00895CF93DF93C9
S11304B0CDB7DEB764970FB6F894DEBF0FBECDBFDD
S11304C024E1ECE7F0E0DE01119601900D922A950B
S11304D0E1F729813A818217930781F0FE0133966F
S11304E0AE014B5E5F4F219131912817390749F0D6
S11304F0E417F507C1F780E090E005C081E090E0E3
S113050002C081E090E064960FB6F894DEBF0FBE9F
S1130510CDBFDF91CF9108950F931F93CF93DF93B6
S1130520CDB7DEB761970FB6F894DEBF0FBECDBF6F
S11305308B0160E00E946D00B801CE0101960E941B
S1130540ED05CE0101960E94810061960FB6F894E4
S1130550DEBF0FBECDBFDF91CF911F910F910895E4
S113056014BA15BA95B321E030E0A901082E02C0EF
S1130570440F551F0A94E2F7942B95BB94B36C5F18
S11305807F4F02C0220F331F6A95E2F7292B24BB49
S113059095B34095492345BB23B330E002C035955C
S11305A027958A95E2F781E090E020FF02C080E081
S11305B090E008950F931F93CF93DF9300E010E032
S11305C018C0BE01C8010E94B002892B49F0C801BD
S11305D0880F991F880F991F01968C0F9D1F0EC0BD
S11305E02196C430D10569F70F5F1F4F0430110500
S11305F019F0C0E0D0E0E5CF8FEF9FEFDF91CF910E
S11306001F910F9108959C0183E083BF83E808C084
S113061082BF98B7916098BFA89508B600FEFDCF39
S113062021503109A8F713BE0895B89AB99ABA9A15
S113063080E190E00E94030360E080E30E944900AF
S113064085E090E00E94030360E080E30E9449009B
S113065081E090E00E94030360E08CE30E94580074
S113066060E08CE00E94580060E086E00E94580040
S113067060E081E00E94580008956F927F928F920B
S11306809F92BF92CF92DF92EF92FF920F931F93AC
S1130690CF93DF93CDB7DEB7A1970FB6F894DEBF43
S11306A00FBECDBF0E94DA02FE01729680E1DF0127
S11306B01D928A95E9F7612C712C08EE13E00F2E38
S11306C0F4E6BF2EF02DEE24E394F12C0F2EFEEA77
S11306D0CF2EF0E0DF2EF02D3CC061E0660D80E00F
S11306E00E946D000E94DA024C010E945602892B7E
S11306F081F1C4010E944602882E992E9F938F9304
S1130700DF92CF9281E090E08C0F9D1F9F938F9397
S11307100E94F405CE0101960E9481008CE291E0D2
S11307200E940303F301EE0FFF1FA1E0B0E0AC0F42
S1130730BD1FEA0FFB1F818A928ABFEF6B1A7B0AE7
S11307400F900F900F900F900F900F9002C0612C9C
S1130750712C88E0681671040CF4BFCF2A893B8998
S1130760C901880F991F220F331F220F331F220F35
S1130770331F280F391F8C899D89820F931F9093F3
S11307800901809308012E893F89B901660F771FFB
S1130790220F331F220F331F220F331F260F371F41
S11307A0688D798D620F731F70930B0160930A013A
S11307B02A8D3B8D209FA001219F500D309F500D0D
S11307C01124EC8DFD8DBE9E9001BF9E300D112431
S11307D0420F531F2E8D3F8DD901AA0FBB1FF90164
S11307E0EE0FFF1FEE0FFF1FEE0FFF1F9D012E0FD9
S11307F03F1F240F351F48A159A1420F531F509387
S11308000F0140930E010E945E01892B89F50E941D
S1130810680061EB70E080E090E00E948C028CED57
S113082095E00E9403030E946800F0926100E09248
S113083060001092070110920601109205011092B7
S1130840040110920301109202010E943D034091A1
S11308500E0150910F0160910A0170910B0180917A
S11308600801909109010E945E01892B09F46FCF60
S1130870A1960FB6F894DEBF0FBECDBFDF91CF9126
S11308801F910F91FF90EF90DF90CF90BF909F90BA
S11308908F907F906F900895AF92BF92CF92DF9226
S11308A0EF92FF920F931F93CF93DF93CDB7DEB7F1
S11308B06D970FB6F894DEBF0FBECDBF0E94DA026B
S11308C0FE0172968CE0DF011D928A95E9F7C12C36
S11308D0D12C01E010E00F2EFEEAEF2EF0E0FF2E07
S11308E0F02D3CC061E06C0D81E00E946D000E941F
S11308F0DA025C010E945602892B81F1C5010E9433
S11309004602A82EB92E9F938F93FF92EF9281E017
S113091090E08C0F9D1F9F938F930E94F405CE014E
S113092001960E9481008CE291E00E940303F6018B
S1130930EE0FFF1FA1E0B0E0AC0FBD1FEA0FFB1FDD
S1130940A18AB28ABFEFCB1ADB0A0F900F900F90E7
S11309500F900F900F9002C0C12CD12C86E0C816C6
S1130960D1040CF4BFCF2A893B89C901880F991F90
S1130970220F331F220F331F220F331F280F391F5B
S11309808C899D89820F931F909313018093120188
S11309902E893F89B901660F771F220F331F220F5B
S11309A0331F220F331F260F371F688D798D620F77
S11309B0731F70930D0160930C012A8D3B8DA90167
S11309C0440F551F220F331F220F331F220F331FD3
S11309D0240F351F4C8D5D8D420F531F5093110111
S11309E0409310010E941401892B89F50E9468002C
S11309F062EC70E080E090E00E948C028CED95E067
S1130A000E9403030E946800109361000093600039
S1130A101092070110920601109205011092040130
S1130A2010920301109202010E944C0440911001A3
S1130A305091110160910C0170910D01809112018E
S1130A40909113010E941401892B09F485CF6D96AE
S1130A500FB6F894DEBF0FBECDBFDF91CF911F91CB
S1130A600F91FF90EF90DF90CF90BF90AF900895DB
S1130A7081E090E090936100809360001092070100
S1130A80109206010E94680084EF91E00E94030323
S1130A900E94DA020E94680063ED70E080E090E05A
S1130AA00E948C0261EE70E081E090E00E948C0272
S1130AB084EF91E00E9403030E94DA0288309105DA
S1130AC089F40E9468000E944C040E9468006FEE42
S1130AD070E080E090E00E948C0288EB9BE00E9432
S1130AE00303DACF8C30910589F40E9468000E94D8
S1130AF03D030E94680068EF70E080E090E00E948F
S1130B008C0288EB9BE00E940303C6CF409721F63A
S1130B100E94680008950E9415030E9468000E94C4
S1130B2038050E94DA0280E293E00E9403030E94E7
S1130B30E50120910E0130910F0140910A0150917D
S1130B400B01609108017091090180E090E00E941E
S1130B509200209110013091110140910C015091AB
S1130B600D01609112017091130181E090E00E94E7
S1130B70D3000E94DA02EC018AE090E00E940303B1
S1130B80249789F60E943805CECF97FB072E16F4DA
S1130B90009407D077FD09D00E94D90507FC05D041
S1130BA03EF4909581959F4F0895709561957F4F80
S1130BB00895AA1BBB1B51E107C0AA1FBB1FA617A0
S1130BC0B70710F0A61BB70B881F991F5A95A9F7F2
S1130BD080959095BC01CD010895FB01DC01019045
S1130BE00D920020E1F70895AEE0B0E0EAEFF5E001
S1130BF00C94B5080D891E8986E08C831A830983B9
S1130C008FEF9FE79E838D83AE01475E5F4F6F89B1
S1130C10788DCE0101960E941606EF81F885E00FCB
S1130C20F11F10822E96E4E00C94D108ABE0B0E002
S1130C30ECE1F6E00C94A7086C017B018A01FC014D
S1130C4017821682838181FFCCC1CE0101963C01BB
S1130C50F6019381F70193FD859193FF81917F01C3
S1130C60882309F4BAC1853239F493FD859193FF41
S1130C7081917F01853229F4B60190E00E940D082C
S1130C80E7CF912C212C312CFFE1F315D8F08B32D6
S1130C9079F038F4803279F08332A1F4232D206185
S1130CA01DC08D3261F0803369F4232D216016C09C
S1130CB0832D8260382EE32DE4603E2E2AC0F32D6E
S1130CC0F8601DC037FC2DC020ED280F2A3040F0FD
S1130CD08E32B9F436FC81C1232D2064322E19C022
S1130CE036FE06C08AE0989E200D1124922E11C073
S1130CF0EAE02E9E200D1124222EF32DF0623F2EC9
S1130D0008C08C3621F4832D8068382E02C08836C2
S1130D1041F4F70193FD859193FF81917F01811146
S1130D20B3CF982F9F7D9554933028F40C5F1F4FB9
S1130D309FE399830DC0833631F0833771F0833597
S1130D4009F059C021C0F801808189830E5F1F4FCB
S1130D5088248394912C530113C02801F2E04F0E90
S1130D60511CF801A080B18036FE03C0692D70E0EB
S1130D7002C06FEF7FEFC5010E9402084C0182019F
S1130D80F32DFF773F2E16C0280122E0420E511C9E
S1130D90F801A080B18036FE03C0692D70E002C066
S1130DA06FEF7FEFC5010E94F7074C01F32DF06848
S1130DB03F2E820133FC1BC0822D90E088169906D9
S1130DC0B0F4B60180E290E00E940D082A94F4CFBA
S1130DD0F50137FC859137FE81915F01B60190E002
S1130DE00E940D0821102A9421E0821A910881148E
S1130DF0910471F7E8C0843611F0893641F5F801A1
S1130E0037FE07C060817181828193810C5F1F4F1F
S1130E1008C060817181072E000C880B990B0E5F4E
S1130E201F4FF32DFF763F2E97FF09C090958095B5
S1130E30709561957F4F8F4F9F4FF0683F2E2AE04A
S1130E4030E0A3010E944908882E861845C08537E2
S1130E5031F4232D2F7EB22E2AE030E025C0932DCD
S1130E60997FB92E8F36C1F018F4883579F0B5C062
S1130E70803719F0883721F0B0C0E92FE061BE2E29
S1130E80B4FE0DC0FB2DF460BF2E09C034FE0AC0B1
S1130E90292F2660B22E06C028E030E005C020E1EC
S1130EA030E002C020E132E0F801B7FE07C0608103
S1130EB07181828193810C5F1F4F06C060817181B3
S1130EC080E090E00E5F1F4FA3010E944908882E26
S1130ED08618FB2DFF773F2E36FE0DC0232D2E7F67
S1130EE0A22E891458F434FE0BC032FC09C0832DA1
S1130EF08E7EA82E05C0B82CA32C03C0B82C01C02C
S1130F00B92CA4FE0FC0FE01E80DF11D80818033D1
S1130F1021F49A2D997EA92E09C0A2FE06C0B3948D
S1130F20B39404C08A2D867809F0B394A3FC11C04D
S1130F30A0FE06C0B21488F4280C922C9B180EC094
S1130F40B21460F4B60180E290E00E940D08B394FC
S1130F50F7CFB21418F42B1802C0982C212CA4FE3D
S1130F6010C0B60180E390E00E940D08A2FE17C0F5
S1130F70A1FC03C088E790E002C088E590E0B601D8
S1130F800CC08A2D867859F0A1FE02C08BE201C004
S1130F9080E2A7FC8DE2B60190E00E940D0889145E
S1130FA038F4B60180E390E00E940D089A94F7CFDC
S1130FB08A94F301E80DF11D8081B60190E00E944E
S1130FC00D088110F5CF222009F442CEB60180E24B
S1130FD090E00E940D082A94F6CFF601868197814D
S1130FE002C08FEF9FEF2B96E2E10C94C308FC0143
S1130FF00590615070400110D8F7809590958E0F40
S11310009F1F0895FC016150704001900110D8F7B2
S1131010809590958E0F9F1F08950F931F93CF93E4
S1131020DF93FB01238121FD03C08FEF9FEF2CC0D1
S113103022FF16C046815781248135814217530708
S113104044F4A081B1819D012F5F3F4F3183208300
S11310508C93268137812F5F3F4F3783268314C0BB
S11310608B01EC01FB010084F185E02D0995892BAE
S1131070E1F6D80116968D919C91179701961796D3
S11310809C938E931697CE01DF91CF911F910F9170
S11310900895FA01AA27283051F1203181F1E8940A
S11310A06F936E7F6E5F7F4F8F4F9F4FAF4FB1E057
S11310B03ED0B4E03CD0670F781F891F9A1FA11D52
S11310C0680F791F8A1F911DA11D6A0F711D811D53
S11310D0911DA11D20D009F468943F912AE0269F18
S11310E011243019305D3193DEF6CF010895462F77
S11310F04770405D4193B3E00FD0C9F7F6CF462F58
S11311004F70405D4A3318F0495D31FD40524193C0
S113111002D0A9F7EACFB4E0A6959795879577957D
S11311206795BA95C9F700976105710508959B0104
S1131130AC010A2E06945795479537952795BA958D
S1131140C9F7620F731F841F951FA01D08952F9266
S11311503F924F925F926F927F928F929F92AF9243
S1131160BF92CF92DF92EF92FF920F931F93CF9390
S1131170DF93CDB7DEB7CA1BDB0B0FB6F894DEBF27
S11311800FBECDBF09942A88398848885F846E844D
S11311907D848C849B84AA84B984C884DF80EE8097
S11311A0FD800C811B81AA81B981CE0FD11D0FB6A0
S11311B0F894DEBF0FBECDBFED010895F894FFCFC4
S11311C0010000001F001C001F001E001F001E0065
S11311D01F001F001E001F001E001F000100020050
S11311E0030005000600070009000A000B000E00BA
S11311F0253032692F253032692F25303469002596
S11312003032693A253032693A253032690025692D
S113121000496E76616C6964204461746521212102
S11312202100496E76616C69642074696D652121C1
S11312302121005365742054696D65202D3E2042A0
S1131240005365742044617465202D3E204300548E
S1131250696D652053657400446174652053657439
S1051260000088
S9030000FC
